:020000040000FA
:100000008601880183160030860000308800811246
:10001000811101158114011483127B30A80018206E
:10002000682021206820212068202A2068200D28AF
:1000300008158811081233202108562086008609E9
:1000400008000811881508123C2022085620860056
:10005000860908000811881108164C204B08562004
:100060008600860908002808A1000A30A1020318AA
:1000700035280A30A10708002808A300FF30A20095
:10008000A20A0A30A302031840280A30A202031869
:1000900045280A30A2070800A808A400FF30CB00BA
:1000A000CB0A6430A40203185028080082073F34AA
:1000B00006345B344F3466346D347D3407347F341A
:1000C0006F3477347C3439345E347934713480342D
:1000D0005030A500C530A600A600A60B6D28A50BC4
:0400E0006C28080080
:02400E003A3F37
:00000001FF
